:020000040800F2
:10000000000001206D230008ED040008EF04000843
:10001000F1040008F3040008F504000800000000E3
:10002000000000000000000000000000F7040008CD
:10003000F904000800000000FB040008FD040008AB
:10004000BD230008BD230008BD230008BD23000810
:10005000BD230008BD230008BD230008BD23000800
:10006000BD230008BD230008BD230008BD230008F0
:10007000BD230008BD230008BD230008BD230008E0
:10008000BD230008BD230008BD230008BD230008D0
:10009000BD230008BD230008BD230008BD230008C0
:1000A000BD230008BD230008BD230008BD230008B0
:1000B000BD230008BD230008BD230008BD230008A0
:1000C000BD230008BD230008BD230008BD23000890
:1000D000BD230008BD230008BD230008BD23000880
:1000E000BD230008BD230008BD230008BD23000870
:1000F000BD230008BD230008BD230008BD23000860
:10010000BD2300080000000000000000BD2300081F
:10011000BD230008BD230008BD230008BD2300083F
:10012000BD230008BD230008BD230008BD2300082F
:10013000BD230008BD2300080000000000000000EF
:10014000BD230008BD230008BD23000800000000F7
:10015000000000000000000000000000000000009F
:10016000BD230008BD230008BD230008BD230008EF
:10017000BD230008BD230008BD230008BD230008DF
:10018000BD230008BD23000800000000000000009F
:04019000BD23000883
:1001A00010B5054C237833B9044B13B10448AFF3B1
:1001B00000800123237010BD7000002000000000AB
:1001C000902C000808B5034B1BB103490348AFF35B
:1001D000008008BD0000000074000020902C000882
:1001E00001F0FF01102A2BDB10F0070F08D010F8E8
:1001F000013B013A8B422DD010F0070F42B3F6D1EC
:10020000F0B441EA012141EA014122F007047FF004
:1002100000070023F0E80256083C85EA010586EA5B
:10022000010685FA47F5A3FA87F586FA47F6A5FA97
:1002300087F68EB9EED1F0BC01F0FF0102F00702A3
:1002400032B110F8013B013A83EA010313B1F8D14E
:100250000020704701387047002D06BF354603382F
:10026000073815F0010F07D1013015F4807F02BF68
:10027000013015F4C03F0130F0BC0138704700BFB9
:1002800010B58AB000240594069407940894099444
:10029000204B5A6942F400225A615A6902F4002242
:1002A0000192019A5A6942F480025A615A6902F431
:1002B00080020292029A5A6942F400325A615A69E3
:1002C00002F400320392039A5A6942F480225A617E
:1002D0005B6903F480230493049B224620214FF0A2
:1002E000904001F019F94FF4005305930A4B06931F
:1002F000079405A9094801F037F820230593012345
:1003000006930794089405A94FF0904001F02CF84B
:100310000AB010BD00100240000021100008004883
:1003200072B6FEE708B50B480B4B03604FF48073C1
:10033000436000238360C36003614AF64442426124
:1003400083610222C261036201F078F900B908BD3D
:10035000FFF7E6FF300100200038004000B585B00F
:1003600000230193029303930A480B4B036000F0B0
:1003700087F950B900220192029201A9054800F0C4
:1003800091F920B905B05DF804FBFFF7C9FFFFF74D
:10039000C7FF00BF980000200074004008B50B485C
:1003A0000B4B03604FF4E133436000238360C36071
:1003B00003610C2242618361C3610362436201F005
:1003C000A4FF00B908BDFFF7ABFF00BFAC000020E1
:1003D0000038014010B5A6B000241D941E9421944D
:1003E0001794189419941A941B945822214601A822
:1003F00002F00AF802231C9301221F92102220927D
:1004000022934FF4004323934FF4E0132493259455
:100410001CA800F0CBF9C8B90F231793022118913B
:10042000002319934FF480621A921B9317A800F0CF
:1004300015FD68B940F201230193002303930D9346
:1004400001A800F011FE28B926B010BDFFF768FF23
:10045000FFF766FFFFF764FF10B5CAB000F06EF952
:10046000FFF7B8FFFFF70CFFFFF75CFFFFF776FF22
:10047000FFF794FF6421194801F0A2FC11E03DF858
:100480001430224616490AA801F0C6FF0AA91548E9
:1004900001F0C2FF0AA801F0A1FC0134A4B2132CA0
:1004A000EDD928220021684601F0AEFF00240A940D
:1004B000FC2221460BA801F0A7FF20214FF090401D
:1004C00001F02FF84FF4FA7000F05CF96423142265
:1004D0006946054801F094F9E1E700BFAC0000204F
:1004E000A82C00088001002030010020FEE7FEE774
:1004F000FEE7FEE7FEE770477047704708B500F07B
:100500002FF908BD00B583B00C4B9A6942F0010287
:100510009A619A6902F001020092009ADA6942F047
:100520008052DA61DB6903F080530193019B07205D
:1005300001F000F803B05DF804FB00BF00100240BA
:1005400000B589B0002303930493059306930793A2
:100550000268134B9A4202D009B05DF804FB03F520
:10056000CE33DA6942F00052DA61DA6902F0005201
:100570000192019A5A6942F400325A615B6903F4AC
:1005800000330293029B102303930323049300235D
:10059000059303A94FF0904000F0E6FEDCE700BFB2
:1005A0000074004000B589B00023039304930593C1
:1005B000069307930268154B9A4202D009B05DF882
:1005C00004FB03F5EC33DA6942F48042DA61DA695C
:1005D00002F480420192019A5A6942F480225A61DF
:1005E0005B6903F480230293029B4FF4304303932F
:1005F0000223049300230593032306930523079303
:1006000003A9034800F0B0FED8E700BF003800405F
:100610000004004800B589B00023039304930593B8
:10062000069307930268154B9A4202D009B05DF811
:1006300004FB03F558439A6942F480429A619A692F
:1006400002F480420192019A5A6942F400325A61DE
:100650005B6903F400330293029B4FF4C06303937E
:100660000223049300230593032306930723079390
:1006700003A94FF0904000F077FED7E70038014023
:1006800070B110B50446037933B102232371002001
:1006900020610123237110BD4371FFF751FFF4E77F
:1006A000012070474379012B1FD070B4012545719B
:1006B000022303710668336840F6FE74944023EA0F
:1006C00004040B6849680B43934023433360046878
:1006D0002368C02101FA02F223EA020222600571B6
:1006E00000234371184670BC704702207047000019
:1006F00010B504460E4B18784FF47A73B3FBF0F341
:100700000C4A1068B0FBF3F000F05AFF68B90F2CE8
:1007100001D901200AE0002221464FF0FF3000F00D
:100720001BFF054B1C60002000E0012010BD00BF36
:1007300000000020080000200400002008B5074A3F
:10074000136843F010031360032000F0F3FE002051
:10075000FFF7CEFFFFF7D6FE002008BD00200240C5
:10076000034A1168034B1B780B441360704700BFAA
:100770007801002000000020014B1868704700BF7E
:100780007801002038B50446FFF7F6FF0546B4F1BE
:10079000FF3F02D0044B1B781C44FFF7EDFF401BCA
:1007A000A042FAD338BD00BF00000020002800F0AE
:1007B000038370B582B00446036813F0010F3DD087
:1007C000C74B5B6803F00C03042B20D0C44B5B6861
:1007D00003F00C03082B13D06368B3F5803F6AD095
:1007E000002B40F08D8003F1804303F504331A6839
:1007F00022F480321A601A6822F480221A605FE0C4
:10080000B74B5B6803F4C033B3F5803FE4D14FF4DA
:10081000003393FAA3F3B24B19684FF4003393FA01
:10082000A3F3B3FA83F303F01F03012202FA03F3E5
:100830000B4203D06368002B00F0C082236813F0E2
:10084000020F00F0C080A64B5B6813F00C0F00F0A5
:100850009780A34B5B6803F00C03082B00F08880A3
:10086000E368002B00F0ED80012292FAA2F3B3FAC4
:1008700083F303F1845303F584139B001A60FFF79D
:100880007BFF0546022393FAA3F3954B19680223D5
:1008900093FAA3F3B3FA83F303F01F03012202FADE
:1008A00003F30B4240F0BE80FFF766FF401B0228B7
:1008B000E8D903208BE28A4A136843F4803313603B
:1008C0006368002B36D0FFF757FF05464FF400331F
:1008D00093FAA3F3824B19684FF4003393FAA3F30E
:1008E000B3FA83F303F01F03012202FA03F30B426E
:1008F000A4D1FFF741FF401B6428E7D9032066E23B
:10090000B3F5A02F09D0764B1A6822F480321A6012
:100910001A6822F480221A60D2E703F18043A3F51B
:100920003C331A6842F480221A601A6842F480321A
:100930001A60C5E7FFF720FF05464FF4003393FA2E
:10094000A3F3674B19684FF4003393FAA3F3B3FA98
:1009500083F303F01F03012202FA03F30B423FF477
:100960006DAFFFF709FF401B6428E6D903202EE294
:100970005B4B5B6803F4C033B3F5004F7FF470AF9B
:10098000022393FAA3F3564B1968022393FAA3F3B5
:10099000B3FA83F303F01F03012202FA03F30B42BD
:1009A00003D0E368934240F00B824D48036823F084
:1009B000F8032169F82292FAA2F2B2FA82F201FA5D
:1009C00002F213430360236813F0080F00F08C80D9
:1009D0006369002B5CD0012191FAA1F2B2FA82F294
:1009E000404B13449B001960FFF7C6FE05460223E7
:1009F00093FAA3F293FAA3F293FAA3F2384A516A54
:100A000093FAA3F3B3FA83F303F01F03012202FA6C
:100A100003F30B4268D1FFF7AFFE401B0228E6D973
:100A20000320D4E12E48036823F0F8032169F8225B
:100A300092FAA2F2B2FA82F201FA02F213430360CE
:100A4000C1E7012393FAA3F3B3FA83F303F18453C9
:100A500003F584139B0000221A60FFF78DFE054604
:100A6000022393FAA3F31E4B1968022393FAA3F30C
:100A7000B3FA83F303F01F03012202FA03F30B42DC
:100A8000A1D0FFF779FE401B0228E9D903209EE19F
:100A9000012292FAA2F2B2FA82F2124B13449B00A4
:100AA00000221A60FFF768FE0546022393FAA3F2BC
:100AB00093FAA3F293FAA3F2094A516A93FAA3F3C1
:100AC000B3FA83F303F01F03012202FA03F30B428C
:100AD0000AD0FFF751FE401B0228E6D9032076E139
:100AE0000010024020819010236813F0040F00F0E2
:100AF000A980BB4BDB6913F0805F20D1B84BDA696A
:100B000042F08052DA61DB6903F080530193019B6C
:100B10000125B44B1B6813F4807F12D0A368012B0E
:100B200023D073BB03F1804303F504331A6A22F028
:100B300001021A621A6A22F004021A621AE00025FF
:100B4000E7E7A84A136843F480731360FFF714FEC5
:100B50000646A44B1B6813F4807FDFD1FFF70CFE21
:100B6000801B6428F5D9032031E19D4A136A43F0C4
:100B700001031362A368002B3CD0FFF7FDFD06467E
:100B80002EE0052B09D0964B1A6A22F001021A6258
:100B90001A6A22F004021A62ECE7914B1A6A42F0D8
:100BA00004021A621A6A42F001021A62E2E70223A0
:100BB00093FAA3F38A4B596A022393FAA3F3B3FA85
:100BC00083F303F01F03012202FA03F3194238D121
:100BD000FFF7D2FD801B41F28833984200F2F28089
:100BE000022393FAA3F293FAA3F3002BDFD07C4BFA
:100BF000196AE1E7FFF7C0FD064618E0022393FA01
:100C0000A3F3774B596A022393FAA3F3B3FA83F35E
:100C100003F01F03012202FA03F3194211D0FFF778
:100C2000ABFD801B41F28833984200F2CD80022355
:100C300093FAA3F293FAA3F3002BDFD0684B196A5F
:100C4000E1E7B5BBA369002B00F0C080644A52689D
:100C500002F00C02082A00F09980022B2FD04FF0EE
:100C6000807393FAA3F3B3FA83F303F1845303F588
:100C700084139B0000221A60FFF77EFD04464FF0AC
:100C8000007393FAA3F3564B19684FF0007393FA6D
:100C9000A3F3B3FA83F303F01F03012202FA03F371
:100CA000194271D0FFF768FD001B0228E7D9032025
:100CB0008DE04B4AD36923F08053D361C2E74FF0F4
:100CC000807393FAA3F3B3FA83F303F1845303F528
:100CD00084139B0000221A60FFF74EFD05464FF07B
:100CE000007393FAA3F33E4B19684FF0007393FA25
:100CF000A3F3B3FA83F303F01F03012202FA03F311
:100D0000194206D0FFF738FD401B0228E7D903201F
:100D10005DE0334AD36A23F00F03616A0B43D36269
:100D2000536823F47613216AE06901430B4353604F
:100D30004FF0807393FAA3F3B3FA83F303F1845370
:100D400003F584139B0001221A60FFF715FD04468A
:100D50004FF0007393FAA3F3214B19684FF000731F
:100D600093FAA3F3B3FA83F303F01F03012202FA09
:100D700003F3194206D1FFF7FFFC001B0228E7D955
:100D8000032024E0002022E0002020E0012B20D0DE
:100D9000134A5368D06A03F4C031E26991421AD110
:100DA00003F47013226A934217D100F00F00636AB4
:100DB000984219D100200AE001207047012006E086
:100DC000012004E0032002E0032000E0002002B044
:100DD00070BD0120FBE70120F9E70120F7E700BF24
:100DE00000100240007000400120F0E7174B5B68E4
:100DF00003F00C02082A01D01548704703F4701163
:100E00004FF4701292FAA2F2B2FA82F221FA02F2CE
:100E10001049885C0D4AD26A02F00F020F2191FA44
:100E2000A1F1B1FA81F1CA400B498A5C13F4803F09
:100E300005D0074BB3FBF2F300FB03F07047044B04
:100E4000B3FBF2F300FB03F0704700BF0010024059
:100E500000127A00B42C0008C42C0008002800F00E
:100E6000BE8070B50D460446614B1B6803F0070356
:100E70008B420BD25E4A136823F007030B431360C7
:100E8000136803F007038B4240F0AB80236813F034
:100E9000020F06D0574A536823F0F003A1680B43B2
:100EA0005360236813F0010F5AD06368012B2DD0D3
:100EB000022B40D0022292FAA2F24E4A106802227D
:100EC00092FAA2F2B2FA82F202F01F02012101FAB2
:100ED00002F2104200F0878046494A6822F003027D
:100EE00013434B60FFF748FC0646424B5B6803F038
:100EF0000C036268B3EB820F32D0FFF73DFC801B1E
:100F000041F288339842F0D9032067E04FF4003271
:100F100092FAA2F2374A10684FF4003292FAA2F223
:100F2000B2FA82F202F01F02012101FA02F2024239
:100F3000D2D1012052E04FF0007292FAA2F22D4A73
:100F400010684FF0007292FAA2F2B2FA82F202F046
:100F50001F02012101FA02F21042BDD101203DE041
:100F6000234B1B6803F00703AB420AD9204A1368DE
:100F700023F007032B431360136803F00703AB420E
:100F800033D1236813F0040F06D01A4A536823F4B0
:100F9000E063E1680B435360236813F0080F07D048
:100FA000144A536823F46053216943EAC103536030
:100FB000FFF71CFF0F4B5B6803F0F003F02292FA7F
:100FC000A2F2B2FA82F2D3400B4AD35CD8400B4B68
:100FD00018600B4B1868FFF78BFB002070BD0120D9
:100FE00070470120FAE70120F8E70120F6E700BF8B
:100FF0000020024000100240D42C0008080000200D
:1010000004000020014B1868704700BF0800002052
:1010100008B5FFF7F7FF074B5B6803F4E0634FF495
:10102000E06292FAA2F2B2FA82F2D340024AD35CB0
:10103000D84008BD00100240E42C000808B5FFF7B6
:10104000E1FF074B5B6803F460534FF4605292FA80
:10105000A2F2B2FA82F2D340024AD35CD84008BD71
:1010600000100240E42C0008F0B583B00446036889
:1010700013F4803F48D0A14BDB6913F0805F40F050
:1010800021819E4BDA6942F08052DA61DB6903F01C
:1010900080530193019B0125994B1B6813F4807FBA
:1010A00000F01281954B1B6A13F4407322D06268E2
:1010B00002F440729A421DD09048016A21F44076B1
:1010C0004FF4803393FAA3F2B2FA82F28D4F3A448E
:1010D00092004FF0010CC2F800C093FAA3F3B3FAE8
:1010E00083F33B449B0000221A60066211F0010F5B
:1010F00040F0FF80814A136A23F4407361680B4318
:101100001362002D40F02381236813F0010F06D0F5
:101110007A4A136B23F00303A1680B43136323681C
:1011200013F0020F06D0754A136B23F44033E168C5
:101130000B431363236813F0040F06D06F4A136B3D
:1011400023F4402321690B431363236813F0200F1A
:1011500006D06A4A136B23F01003E1690B43136353
:10116000236813F4003F06D0644A536823F48003D5
:10117000616D0B435360236813F0400F06D05F4A44
:10118000136B23F02003216A0B431363236813F4CA
:10119000802F06D0594A136B23F04003616A0B433A
:1011A0001363236813F0080F06D0544A136B23F41B
:1011B000401361690B431363236813F0100F06D0CB
:1011C0004E4A136B23F44003A1690B431363236856
:1011D00013F4007F06D0494A536823F40003216BBF
:1011E0000B435360236813F0800F06D0434AD36A41
:1011F00023F4F873A16A0B43D362236813F4807F4E
:1012000006D03E4AD36A23F47853E16A0B43D36293
:10121000236813F4805F06D0384A136B23F480737D
:10122000616B0B431363236813F4005F06D0334AEA
:10123000136B23F40073216C0B431363236813F4C3
:10124000801F06D02D4A136B23F08073A16B0B43D4
:101250001363236813F4001F06D0284A136B23F08E
:101260000073E16B0B431363236813F4800F06D004
:10127000224A136B23F48063616C0B43136323686E
:1012800013F4000F06D01D4A136B23F40063A16C06
:101290000B431363236813F0807F06D0174A136B48
:1012A00023F40053E16C0B431363236813F0007FB6
:1012B00054D0124A136B23F40043216D0B43136384
:1012C00000204CE00025E7E60D4A136843F48073E4
:1012D0001360FFF751FA0646094B1B6813F4807F31
:1012E0007FF4E0AEFFF748FA801B6428F4D90320AE
:1012F00035E0FFF741FA06461FE000BF001002404C
:101300000070004000819010022393FAA3F3154B64
:10131000596A022393FAA3F3B3FA83F303F01F038A
:10132000012202FA03F30B427FF4E4AEFFF724FA42
:10133000801B41F2883398420ED8022393FAA3F21D
:1013400093FAA3F3002BDFD0064B196AE1E7D369C8
:1013500023F08053D361D7E6032000E0002003B0E0
:10136000F0BD00BF00100240F0B583B0002336E0AE
:10137000062400E00024B4403C430235624E46F8A7
:101380002540624C2568D44325EA02064F6817F4CD
:10139000803F01D042EA05065C4D2E606D6804EA8C
:1013A00005064F6817F4003F01D042EA0506574D85
:1013B0006E60AD6804EA05064F6817F4801F01D01F
:1013C00042EA0506514DAE60ED682C404E6816F4B9
:1013D000001F01D042EA05044C4AD46001330A6878
:1013E00032FA03F400F08D8001249C402240F5D0B5
:1013F0004D686E1E012E03D9112D01D0122D12D170
:1014000086685F000325BD4026EA0506CD68BD401D
:1014100035438560466826EA04064D68C5F3001426
:101420009C4034434460C7685E000325B540EC43EC
:1014300027EA05078D68B5403D43C5604D68022D1C
:1014400001D0122D13D1DF08083750F827E003F040
:1014500007054FEA850C0F2505FA0CF52EEA050E57
:101460000D6905FA0CF545EA0E0540F827500568A8
:1014700025404C6804F00304B4402C4304604C68DD
:1014800014F0805FAAD0224CA56945F00105A56142
:10149000A46904F001040194019C9D08AE1C1A4C3F
:1014A00054F8267003F00304A6000F24B44027EA82
:1014B0000407B0F1904F3FF45DAF164CA04216D038
:1014C00004F58064A04214D004F58064A04212D0D8
:1014D00004F58064A04210D004F58064A0420ED0D0
:1014E00004F58064A0423FF443AF072443E701249E
:1014F00041E702243FE703243DE704243BE70524BA
:1015000039E703B0F0BD00BF000001400004014016
:1015100000100240000400480AB1816170478162F6
:101520007047436901EA030221EA030141EA0241EB
:1015300081617047074AD36823F4E0631B041B0CE6
:10154000000200F4E060034343F0BF6343F4003360
:10155000D360704700ED00E030B4174BDB68C3F395
:101560000223C3F10704042C28BF04241D1D062DEB
:1015700018D9033B4FF0FF3505FA04F421EA0401C2
:10158000994005FA03F322EA0303194300280BDB11
:101590000901C9B200F1604000F5614080F8001314
:1015A00030BC70470023E5E700F00F000901C9B225
:1015B000024B1954F4E700BF00ED00E014ED00E029
:1015C0000138B0F1807F0AD2064B5860064AF021FC
:1015D00082F823100020986007221A6070470120CB
:1015E000704700BF10E000E000ED00E02DE9F84397
:1015F0000646884617461D46FFF7BEF88146346802
:10160000A46838EA04030CBF01240024BC4212D0B1
:10161000B5F1FF3FF3D0FFF7AFF8A0EB0900A84208
:1016200001D2002DEBD1012386F84130002386F84A
:101630004030032000E00020BDE8F883002800F0DF
:10164000D18070B596B0044690F84130002B5CD044
:10165000022284F841202168CB6923F47B6323F0C4
:101660000F03CB6123681A626369934276D0E36803
:10167000002B51D11025A368202B00D86D004FF40A
:1016800000730093E369012B48D000230C93684654
:10169000FFF7EAFCFFF7AAFB2369B3F5007F45D00B
:1016A000B0FBF5F000EB800043006069B3FBF0F3A2
:1016B00005334D4AA2FB0323C3F3C002C2EBD3039D
:1016C0005B0811029A1EFD2A4AD822690A43216842
:1016D00013430B622168CB6923F47B6323F00F0370
:1016E0006268A0680243E0680243A06902431343B2
:1016F00043F40063CB61236A012B37D00020606480
:10170000012384F8413016B070BD80F84030374B6B
:101710004363FEF747FF9BE72025ACE74FF4000348
:101720000C936846FFF7A0FC3148B5E7E36853B176
:10173000AD00B0FBF5F000EB800043006069B3FB47
:10174000F0F30533B5E7ED00B0FBF5F000EB8000FA
:1017500043006069B3FBF0F30533AAE70021B1E76A
:10176000636C43F0100363640120CCE7214B636397
:101770002268214B9A421FD04FF04022D36923F4B4
:101780007B6323F00F03D36122681B4B9A4215D071
:101790004FF0402302221A622268174B9A4210D05F
:1017A0004FF04025EB699BB26268B2F5007F0AD02A
:1017B000B2B94FF4807008E0104ADFE7A3F5806308
:1017C000E8E70E4DEEE74FF480702689A189228B61
:1017D000304301430A43134343F40063EB618DE755
:1017E0000020F2E701207047CDCCCCCC871900084F
:1017F00000127A00991B00080038004000340040B5
:1018000070B582B000297BD004461D46002A79D0ED
:1018100094F84030DBB2012B78D0012384F84030BB
:1018200094F84160F6B29E4210D1042384F841300E
:1018300000236364E1622168CB6903F00703032B93
:1018400009D0052B07D02286628608E0002384F8A1
:101850004030022657E0520092B222866286CB695F
:1018600013F4806F03D1CB6943F48063CB612268AA
:10187000D36903F44073B3F5407F27D0628E92B2F0
:10188000002A36D02B46012211462046FFF7AEFE35
:1018900020BB2368DA68E36A1A80E36A0233E362F2
:1018A000628E92B2013A92B2628623689A6812F00E
:1018B000400FE3D000220192DA6801929B68019305
:1018C000019B636C43F002036364D7E7002300933A
:1018D000D368009393680093009BCFE7636C43F059
:1018E00001036364012384F84130002384F840300D
:1018F00009E0012384F84130002684F8406002E0CA
:10190000012600E00126304602B070BD0226FAE74B
:10191000704708B5426A03681288DA60436A023386
:101920004362438D9BB2013B9BB24385438D9BB287
:1019300003B108BD0268536823F0A003536001237C
:1019400080F84130FFF7E4FFF3E7704708B503681C
:10195000DA68C36A1A80C36A0233C362438E9BB2D9
:10196000013B9BB24386438E9BB203B108BD026824
:10197000536823F060035360012380F84130FFF780
:10198000E4FFF3E7704710B584B00446026893683B
:10199000039390F84130DBB2042B06D094F8413029
:1019A000DBB2032B2CD004B010BD039B13F0010F4E
:1019B00003D0536813F0400F1FD1039B13F0400F67
:1019C000ECD023685A6812F0200FE7D05A6822F052
:1019D00060025A60002301932368DA6801929B68D1
:1019E0000193019B012384F84130636C43F00203AF
:1019F00063642046FFF7C6FFD0E7FFF7A7FFDCE7E9
:101A0000039B13F0020F04D023685B6813F0800F70
:101A10001DD1039B13F0080FC5D023685A6812F03C
:101A2000200FC0D05A6822F0A0025A60002302930F
:101A300023689B680293029B012384F84130636C06
:101A400043F0040363642046FFF79CFFABE72046A6
:101A5000FFF75FFFDDE7704708B5436A9A1C4262F3
:101A600002681B88D360438D9BB2013B9BB24385C8
:101A7000438D9BB23BB90268536823F0A0035360C7
:101A8000438E9BB203B108BD012380F84130FFF7BC
:101A9000E2FFF8E708B50268154B9A421CD04FF0F8
:101AA0004023DA68C36A991CC1621A80438E9BB2D4
:101AB000013B9BB24386438E9BB263B902680C4BD9
:101AC0009A420CD04FF04022536823F060035360D9
:101AD000438D9BB22BB108BDA3F58063E1E7054AB6
:101AE000F2E7012380F84130FFF7B5FFF3E700BFCD
:101AF000003800400034004008B5436A9A1C426236
:101B00001A880168134B994218D04FF04023DA60CD
:101B1000438D9BB2013B9BB24385438D9BB263B91E
:101B200002680C4B9A420CD04FF04022536823F0CD
:101B3000A0035360438E9BB22BB108BDA3F5806315
:101B4000E5E7054AF2E7012380F84130FFF783FF1C
:101B5000F3E700BF003800400034004008B50368D8
:101B6000DA68C36A991CC1621A80438E9BB2013B3A
:101B70009BB24386438E9BB23BB90268536823F005
:101B800060035360438D9BB203B108BD012380F80D
:101B90004130FFF760FFF8E710B586B004460368F0
:101BA0009A680592704A93426FD04FF04022916834
:101BB00004915B680393536802936368B3F5007FF5
:101BC00001D0002B70D1059B13F0020F03D0039BB3
:101BD00013F0800F5CD1049B13F0010F03D0029B24
:101BE00013F0400F58D1049B13F0400F24D0029BF8
:101BF00013F0200F20D022685B4B9A4250D04FF058
:101C00004022536823F0600353602268536823F036
:101C1000A0035360002300932368DA6800929B6856
:101C20000093009B012384F84130636C43F002036E
:101C300063642046FFF7A6FE059B13F0080F22D031
:101C4000039B13F0200F1ED02268536823F0A003DB
:101C500053602268444B9A4224D04FF0402253688C
:101C600023F0600353600023019323689B68019372
:101C7000019B012384F84130636C43F004036364E7
:101C80002046FFF77FFE06B010BDA2F580628EE70A
:101C90002046FFF7E1FE9EE72046FFF7FBFEA2E7A6
:101CA000324AAEE7314ADAE7049B13F0020F03D061
:101CB000029B13F0800F4AD1059B13F0010F03D054
:101CC000039B13F0400F46D1059B13F0400F1CD02F
:101CD000039B13F0200F18D02268536823F0600391
:101CE00053602268204B9A4239D04FF0402253680B
:101CF00023F0A0035360012384F84130636C43F068
:101D0000020363642046FFF73DFE049B13F0080FB7
:101D1000B9D0029B13F0200FB5D02268124B9A4223
:101D20001FD04FF04022536823F0A0035360226875
:101D3000536823F060035360012384F84130636CDF
:101D400043F0040363642046FFF71CFE9BE7204634
:101D5000FFF7D2FEB0E72046FFF700FFB4E7034AE3
:101D6000C5E7024ADFE700BF00380040003400400A
:101D7000034AD2F8883043F47003C2F888307047C1
:101D800000ED00E010B4034600200C46814204DD63
:101D90001A7812B101330130F7E71B780BB1844296
:101DA00008D053B9844202DD5DF8044B70474FF010
:101DB000FF30F9E74FF0FF30F6E74FF0FF30F3E781
:101DC00008B5054B1860A3F8841080220021181D67
:101DD00000F01AFB08BD00BF7C01002010B50446CE
:101DE0008021FFF7CFFF021E00DC10BD0448B0F8D1
:101DF000843092B22146006800F0E3F9F5E700BFB5
:101E00007C01002010B504468368026913434269CF
:101E10001343C269134301680868864A02401343AA
:101E20000B602268536823F44053E1680B4353600E
:101E3000A269236A1A4321688B6823F43063134331
:101E40008B6023687C4A93420DD07C4A93421CD01D
:101E50007B4A93423AD07B4A93424AD07A4A934291
:101E60005AD010231FE0794B1B6B03F00303032BA5
:101E700009D8DFE803F002040664012313E0042319
:101E800011E008230FE010230DE0704B1B6B03F4EF
:101E90004033B3F5003F54D013D8002B53D0B3F5E3
:101EA000803F52D10423E069B0F5004F69D0082B80
:101EB00000F2B980DFE803F092A890B7ABB7B7B7EC
:101EC000AE00B3F5403F42D10223ECE75F4B1B6B02
:101ED00003F44023B3F5002F3BD005D8DBB3B3F5B3
:101EE000802F3AD10423DEE7B3F5402F37D1022308
:101EF000D9E7564B1B6B03F44013B3F5001F30D0EA
:101F000005D883B3B3F5801F2FD10423CBE7B3F5F6
:101F1000401F2CD10223C6E74C4B1B6B03F440033C
:101F2000B3F5000F25D005D82BB3B3F5800F24D11E
:101F30000423B8E7B3F5400F21D10223B3E702230E
:101F4000B1E70823AFE70023ADE71023ABE7102389
:101F5000A9E70823A7E70023A5E71023A3E7102399
:101F6000A1E708239FE700239DE710239BE71023A9
:101F700099E7082397E7002395E7102393E71023B9
:101F800091E7082B49D8DFE803F0051F25482248D0
:101F900048480900FFF73CF8002840D06268530821
:101FA00003EB4000B0FBF2F080B2A0F110024FF65C
:101FB000EF739A4235D820F00F03C0F34200184364
:101FC0002368D86000201BE0FFF738F8E4E7FEF74D
:101FD0000DFFE1E71E48E1E71D4802E0FFF718F8B2
:101FE00018B3636800EB5300B0FBF3F080B2A0F1CC
:101FF00010024FF6EF739A4219D82368D860002078
:1020000000236366A36610BDFFF718F8E8E7FEF744
:10201000EDFEE5E74FF40040E3E70120F0E70020A4
:10202000EEE70120ECE70120EAE70020E8E70120E5
:10203000E6E700BFF369FFEF0038014000440040CD
:1020400000480040004C004000500040001002409A
:1020500000127A00436A13F0010F06D00268536839
:1020600023F40033816A0B435360436A13F0020F79
:1020700006D00268536823F48033C16A0B4353606F
:10208000436A13F0040F06D00268536823F48023D8
:10209000016B0B435360436A13F0080F06D00268CC
:1020A000536823F40043416B0B435360436A13F0BE
:1020B000100F06D00268936823F48053816B0B43A2
:1020C0009360436A13F0200F06D00268936823F4EC
:1020D0000053C16B0B439360436A13F0400F0AD067
:1020E0000268536823F48013016C0B435360036C44
:1020F000B3F5801F0BD0436A13F0800F06D002683F
:10210000536823F40023816C0B43536070470268CB
:10211000536823F4C003416C0B435360EBE72DE994
:10212000F84305460F4616469946DDF820802C6890
:10213000E46937EA04030CBF01240024B4423DD112
:10214000B8F1FF3FF3D0FEF717FBA0EB09004045C5
:1021500022D8B8F1000F1FD02B681A6812F0040FB4
:10216000E5D0DA6912F4006FE1D04FF400621A6230
:102170002A68136823F4D07313602A68936823F0E5
:10218000010393602023AB67EB67C5F88030002321
:1021900085F87430032012E02A68136823F4D073A2
:1021A00013602A68936823F0010393602023AB67D0
:1021B000EB67002385F87430032000E00020BDE8C1
:1021C000F8832DE9F04182B01E46836F202B56D153
:1021D00004460D469046002955D0002A55D090F867
:1021E0007430012B53D0012380F874300023C0F8E1
:1021F000803021238367FEF7BFFA0746A4F850809A
:10220000A4F85280A368B3F5805F05D04FF00008B2
:10221000002384F8743014E0236913B14FF00008F0
:10222000F6E7A8460025F3E738F8023B2268C3F337
:1022300008031385B4F8522092B2013A92B2A4F87E
:102240005220B4F852309BB273B100963B46002244
:1022500080212046FFF763FFD8B9002DE4D0236822
:1022600015F8012B1A85E5E700963B460022402130
:102270002046FFF754FF70B92023A36700E0022037
:1022800002B0BDE8F0810120FAE70120F8E7022062
:10229000F6E70320F4E70320F2E730B583B0044605
:1022A0000023C0F88030FEF767FA054623681B68F4
:1022B00013F0080F0DD123681B6813F0040F16D11B
:1022C0002023A367E3670020206684F8740003B02E
:1022D00030BD6FF07E430093034600224FF400119F
:1022E0002046FFF71CFF0028E5D00320EFE76FF042
:1022F0007E4300932B4600224FF480012046FFF7D7
:102300000EFF0028DCD00320E1E768B310B50446D7
:10231000836F03B32423A3672268136823F00103A8
:1023200013602046FFF76EFD012813D0636ABBB926
:102330002268536823F4904353602268936823F023
:102340002A0393602268136843F001031360204658
:10235000FFF7A3FF10BD80F87430FEF75BF9D9E7F3
:102360002046FFF777FEE3E701207047DFF834D01F
:102370000D480E490E4A002302E0D458C4500433DD
:10238000C4188C42F9D30B4A0B4C002301E01360B4
:102390000432A242FBD3FFF7EBFC00F011F8FEF78A
:1023A0005BF8FEE700000120000000207000002024
:1023B000282D00087000002014020020FEE7000015
:1023C00070B50D4D0D4C641BA4100026A64209D11A
:1023D0000B4D0C4C00F05CFC641BA4100026A642C4
:1023E00005D170BD55F8043B98470136EEE755F826
:1023F000043B98470136F2E7202D0008202D000805
:10240000202D0008242D000802440346934200D1E9
:10241000704703F8011BF9E70EB400B59CB01DAB83
:10242000029006906FF00041094807910491094914
:1024300053F8042B05910068019302A900F068F895
:10244000029B00221A701CB05DF804EB03B07047C9
:102450000C0000200802FFFF2DE9F0478E689E4225
:1024600082460C4690461F4638D88A8912F4906FEF
:1024700032D025680969A5EB0109656905EB4505B9
:1024800005EBD57501334B446D109D4238BF1D4699
:10249000530531D5294600F047FB064650B90C23B9
:1024A000CAF80030A38943F04003A3814FF0FF3006
:1024B000BDE8F08721694A4600F0BEFAA38923F4FB
:1024C000906343F08003A381266165614E44A5EBD0
:1024D00009052660A5603E46BE4200D93E4632460A
:1024E0002068414600F0B6FAA36822689B1B32447C
:1024F000A36022600020DBE72A4600F06FFB06465F
:102500000028E1D12169504600F0BEFAC7E700007B
:102510002DE9F04F98468B891B069DB007460D4666
:1025200014460ED50B6963B9402100F0FDFA28600E
:10253000286120B90C233B604FF0FF30D1E04023ED
:102540006B610023099320238DF82930CDF80C808E
:102550003023DFF8A8818DF82A304FF00109234697
:102560009A4613F8012B0AB1252AF9D1BAEB040BCC
:102570000BD05B46224629463846FFF76DFF0130F7
:1025800000F0AA80099A5A4409929AF80030002B68
:1025900000F0A28000234FF0FF32CDE905230AF1BD
:1025A000010A049307938DF853301A935446052279
:1025B00014F8011B5148FDF713FE049AD8B9D00650
:1025C00044BF20238DF85330110744BF2B238DF8CF
:1025D00053309AF800302A2B15D0079A5446002021
:1025E0004FF00A0C214611F8013B303B092B4ED924
:1025F000B0B1079214E0A0EB080309FA03F3134308
:102600000493A246D2E7039B191D1B680391002B7C
:10261000BBBF5B4242F0020207930793B8BF04922C
:1026200023782E2B0CD163782A2B35D1039B1A1DCE
:102630001B680392002BB8BF4FF0FF3302340593A1
:10264000DFF8C8A0217803225046FDF7C9FD40B14C
:102650004023A0EB0A0003FA00F0049B034301347B
:10266000049314F8011B26488DF828100622FDF764
:10267000B7FD002838D0234B1BBB039B073323F047
:10268000070308330393099B3344099367E70CFB63
:1026900002320C460120A5E70023013405931946B8
:1026A0004FF00A0C204610F8012B303A092A03D9C2
:1026B000002BC5D00591C3E70CFB01210446012383
:1026C000F0E703AB00932A460F4B04A93846AFF35B
:1026D0000080421C0646D6D1AB895B063FF52CAF85
:1026E00009981DB0BDE8F08F03AB00932A46064B56
:1026F00004A9384600F07AF8EBE700BFEC2C00089C
:10270000F62C00080000000059240008F22C0008F4
:102710002DE9F047164699468A680B69DDF8208056
:102720009342B8BF1346336091F8432007460C46E6
:102730000AB1013333602368990642BF336802331C
:102740003360256815F0060506D104F1190AE3681F
:1027500032689B1AAB4226DC94F84320131E226891
:1027600018BF012392062BD404F143024946384690
:10277000C04701301ED02368E568326803F00603C5
:10278000042B08BFAD1AA36822690CBF25EAE575C2
:1027900000259342C4BF9B1AED1800261A34B54297
:1027A0001AD1002008E00123524649463846C04766
:1027B000013003D14FF0FF30BDE8F0870135C6E7A7
:1027C000E1185A1C302081F84300224494F8451047
:1027D00082F843100233C7E70123224649463846B0
:1027E000C0470130E6D00136D9E700002DE9FF47A8
:1027F0000C469146277E0C99782F80469A4604F124
:10280000430207D8622F0AD8002F00F0D880582F33
:1028100000F0A38004F1420684F842703AE0A7F188
:102820006303152BF6D801A050F823F08528000883
:102830009928000815280008152800081528000800
:1028400015280008992800081528000815280008F0
:102850001528000815280008A5290008C92800081F
:10286000872900081528000815280008C72900082E
:1028700015280008C9280008152800081528000890
:102880008F2900080B681A1D1B680A6004F14206B4
:1028900084F842300123A3E0256808682E0600F181
:1028A00004030AD505680B60002D03DA2D236D4261
:1028B00084F843305E480A2319E015F0400F05689C
:1028C0000B6018BF2DB2EFE70B682568181D086074
:1028D000280601D51D6802E06906FBD51D8854480D
:1028E0006F2F0CBF08230A23002184F84310666869
:1028F000A660002EA2BF216821F0040121600DB95D
:10290000002E4DD01646B5FBF3F103FB1157C75D02
:1029100006F8017D2F46BB420D46F4D9082B0BD19A
:102920002368DF0708D5236961689942DEBF302339
:1029300006F8013C06F1FF36921B2261CDF800A09B
:102940004B4603AA21464046FFF7E2FE01304CD138
:102950004FF0FF3004B0BDE8F087354884F845708B
:1029600023680E681F0656F8045B0E6014D5D9075D
:1029700044BF43F0200323601DB9236823F02003E4
:1029800023601023B0E7236843F0200323607823FB
:10299000284884F84530E3E75E0648BFADB2E6E775
:1029A0001646BBE70B68266860691D1D0D6035067D
:1029B0001B6801D5186002E07106FBD51880002362
:1029C00023611646BAE70B681A1D0A601E68626822
:1029D00000213046FDF704FC08B1801B606063688D
:1029E0002361002384F84330A8E72369324649462F
:1029F0004046D0470130ABD023689B0713D4E06832
:102A0000039B9842B8BF1846A4E7012332464946C3
:102A10004046D04701309BD00135E36803995B1AEB
:102A2000AB42F2DCEBE7002504F11906F5E700BF45
:102A3000FD2C00080E2D00080A44914200F1FF33DE
:102A400000D1704710B511F8014B03F8014F9142C6
:102A5000F9D110BD884210B501EB020402D98442BD
:102A6000234607D8431EA14208D011F8012B03F8D2
:102A7000012FF8E7024401468A4200D110BD13F845
:102A8000014D02F8014DF7E737B5002948D051F85C
:102A9000043C0190002BA1F10404B8BFE41800F03D
:102AA000D3F8204A01981368154633B9636014605F
:102AB00003B0BDE8304000F0CDB8A3420BD9216887
:102AC0006218934204BF1A685B68636004BF5218BF
:102AD00022602C60ECE71A465B680BB1A342FAD97E
:102AE00011685518A5420BD1246821445418A342FB
:102AF0001160DDD11C685B68536021441160D7E729
:102B000002D90C230360D3E7256861198B4204BF07
:102B100019685B68636004BF491921605460C7E7A6
:102B200003B030BD8C000020F8B5CD1C25F00305A6
:102B300008350C2D38BF0C25002D064601DBA942B7
:102B400003D90C2333600020F8BD00F07DF8214943
:102B50000A6814469CB9204F3B6823B92146304689
:102B600000F062F838602946304600F05DF8431CFA
:102B700023D10C233360304600F06CF8E3E7236880
:102B80005B1B17D40B2B03D923601C44256004E086
:102B90006368A2420CBF0B605360304600F05AF8E5
:102BA00004F10B00231D20F00700C21ACCD01B1A21
:102BB000A350C9E722466468CCE7C41C24F0030490
:102BC000A042E3D0211A304600F02EF80130DDD1CA
:102BD000CFE700BF8C00002090000020F8B507462A
:102BE00014460E4621B9BDE8F8401146FFF79CBFD8
:102BF00022B9FFF749FF25462846F8BD00F030F816
:102C0000A0420FD221463846FFF78EFF0546002826
:102C1000F2D031462246FFF70FFF31463846FFF724
:102C200033FFE9E73546E7E738B5064D00230446AC
:102C300008462B6000F01EF8431C02D12B6803B13C
:102C4000236038BD04020020014800F011B800BF25
:102C50000C020020014800F00CB800BF0C0200205C
:102C600051F8043C181F002BBCBF0B58C01870470C
:102C700070477047044A05491368002B08BF0B468C
:102C80001844106018467047940000201802002075
:102C9000F8B500BFF8BC08BC9E467047F8B500BF49
:082CA000F8BC08BC9E46704719
:102CA8005B25645D20256C750000000002030405A7
:102CB800060708090A0B0C0D0E0F10100102030479
:102CC80005060708090A0B0C0D0E0F10000000007E
:102CD80000000000010203040607080900000000C4
:102CE80001020304232D302B2000686C4C0065661C
:102CF8006745464700303132333435363738394145
:102D0800424344454600303132333435363738395A
:082D180061626364656600005E
:042D2000C5010008E1
:042D2400A101000801
:102D2800010000001000000000127A0010000020CE
:102D3800000000000000000000000000000000008B
:102D4800000000000000000000000000000000007B
:102D5800000000000000000000000000000000006B
:102D6800000000000000000000000000000000005B
:102D7800000000000000000000000000000000004B
:102D8800000000000000000000000000000000003B
:040000050800236D5F
:00000001FF
